{
  "_format": "hh-sol-artifact-1",
  "contractName": "PaymentStream",
  "sourceName": "contracts/PaymentStream.sol",
  "abi": [
    {
      "anonymous": false,
      "inputs": [
        {
          "indexed": true,
          "internalType": "address",
          "name": "recipient",
          "type": "address"
        },
        {
          "indexed": false,
          "internalType": "uint256",
          "name": "streamId",
          "type": "uint256"
        },
        {
          "indexed": false,
          "internalType": "uint256",
          "name": "refundAmount",
          "type": "uint256"
        }
      ],
      "name": "StreamCancelled",
      "type": "event"
    },
    {
      "anonymous": false,
      "inputs": [
        {
          "indexed": true,
          "internalType": "address",
          "name": "recipient",
          "type": "address"
        },
        {
          "indexed": false,
          "internalType": "uint256",
          "name": "streamId",
          "type": "uint256"
        },
        {
          "indexed": false,
          "internalType": "uint256",
          "name": "deposit",
          "type": "uint256"
        },
        {
          "indexed": false,
          "internalType": "uint256",
          "name": "startTime",
          "type": "uint256"
        },
        {
          "indexed": false,
          "internalType": "uint256",
          "name": "endTime",
          "type": "uint256"
        }
      ],
      "name": "StreamCreated",
      "type": "event"
    },
    {
      "anonymous": false,
      "inputs": [
        {
          "indexed": true,
          "internalType": "address",
          "name": "recipient",
          "type": "address"
        },
        {
          "indexed": false,
          "internalType": "uint256",
          "name": "streamId",
          "type": "uint256"
        },
        {
          "indexed": false,
          "internalType": "uint256",
          "name": "amount",
          "type": "uint256"
        }
      ],
      "name": "Withdraw",
      "type": "event"
    },
    {
      "inputs": [
        {
          "internalType": "address",
          "name": "recipient",
          "type": "address"
        },
        {
          "internalType": "uint256",
          "name": "streamId",
          "type": "uint256"
        }
      ],
      "name": "calculateBalance",
      "outputs": [
        {
          "internalType": "uint256",
          "name": "",
          "type": "uint256"
        }
      ],
      "stateMutability": "view",
      "type": "function"
    },
    {
      "inputs": [
        {
          "internalType": "uint256",
          "name": "streamId",
          "type": "uint256"
        }
      ],
      "name": "cancelStream",
      "outputs": [],
      "stateMutability": "nonpayable",
      "type": "function"
    },
    {
      "inputs": [
        {
          "internalType": "address",
          "name": "recipient",
          "type": "address"
        },
        {
          "internalType": "uint256",
          "name": "deposit",
          "type": "uint256"
        },
        {
          "internalType": "uint256",
          "name": "duration",
          "type": "uint256"
        }
      ],
      "name": "createStream",
      "outputs": [],
      "stateMutability": "payable",
      "type": "function"
    },
    {
      "inputs": [
        {
          "internalType": "address",
          "name": "",
          "type": "address"
        }
      ],
      "name": "nextStreamId",
      "outputs": [
        {
          "internalType": "uint256",
          "name": "",
          "type": "uint256"
        }
      ],
      "stateMutability": "view",
      "type": "function"
    },
    {
      "inputs": [
        {
          "internalType": "address",
          "name": "",
          "type": "address"
        },
        {
          "internalType": "uint256",
          "name": "",
          "type": "uint256"
        }
      ],
      "name": "streams",
      "outputs": [
        {
          "internalType": "uint256",
          "name": "deposit",
          "type": "uint256"
        },
        {
          "internalType": "uint256",
          "name": "startTime",
          "type": "uint256"
        },
        {
          "internalType": "uint256",
          "name": "endTime",
          "type": "uint256"
        },
        {
          "internalType": "uint256",
          "name": "ratePerSecond",
          "type": "uint256"
        },
        {
          "internalType": "uint256",
          "name": "withdrawn",
          "type": "uint256"
        }
      ],
      "stateMutability": "view",
      "type": "function"
    },
    {
      "inputs": [
        {
          "internalType": "uint256",
          "name": "streamId",
          "type": "uint256"
        }
      ],
      "name": "withdraw",
      "outputs": [],
      "stateMutability": "nonpayable",
      "type": "function"
    },
    {
      "stateMutability": "payable",
      "type": "receive"
    }
  ],
  "bytecode": "0x608060405234801561001057600080fd5b50610f06806100206000396000f3fe6080604052600436106100595760003560e01c80632e1a7d4d146100655780636db9241b1461008e5780639b9d6cc1146100b7578063cd3489a4146100f8578063cd9e3fe814610135578063eac9e2391461015157610060565b3661006057005b600080fd5b34801561007157600080fd5b5061008c6004803603810190610087919061097f565b61018e565b005b34801561009a57600080fd5b506100b560048036038101906100b0919061097f565b610330565b005b3480156100c357600080fd5b506100de60048036038101906100d991906108f4565b6104f8565b6040516100ef959493929190610c46565b60405180910390f35b34801561010457600080fd5b5061011f600480360381019061011a91906108f4565b61053b565b60405161012c9190610bbd565b60405180910390f35b61014f600480360381019061014a9190610930565b6105fa565b005b34801561015d57600080fd5b50610178600480360381019061017391906108cb565b610889565b6040516101859190610bbd565b60405180910390f35b60008060003373ffffffffffffffffffffffffffffffffffffffff1673ffffffffffffffffffffffffffffffffffffffff168152602001908152602001600020600083815260200190815260200160002090506000816000015411610228576040517f08c379a000000000000000000000000000000000000000000000000000000000815260040161021f90610b3d565b60405180910390fd5b6000610234338461053b565b905060008111610279576040517f08c379a000000000000000000000000000000000000000000000000000000000815260040161027090610b9d565b60405180910390fd5b8082600401600082825461028d9190610caa565b925050819055503373ffffffffffffffffffffffffffffffffffffffff166108fc829081150290604051600060405180830381858888f193505050501580156102da573d6000803e3d6000fd5b503373ffffffffffffffffffffffffffffffffffffffff167ff279e6a1f5e320cca91135676d9cb6e44ca8a08c0b88342bcdb1144f6511b5688483604051610323929190610bd8565b60405180910390a2505050565b60008060003373ffffffffffffffffffffffffffffffffffffffff1673ffffffffffffffffffffffffffffffffffffffff1681526020019081526020016000206000838152602001908152602001600020905060008160000154116103ca576040517f08c379a00000000000000000000000000000000000000000000000000000000081526004016103c190610b3d565b60405180910390fd5b6000816004015482600001546103e09190610d8b565b90506000803373ffffffffffffffffffffffffffffffffffffffff1673ffffffffffffffffffffffffffffffffffffffff1681526020019081526020016000206000848152602001908152602001600020600080820160009055600182016000905560028201600090556003820160009055600482016000905550503373ffffffffffffffffffffffffffffffffffffffff166108fc829081150290604051600060405180830381858888f193505050501580156104a2573d6000803e3d6000fd5b503373ffffffffffffffffffffffffffffffffffffffff167f73d74d92043ffdb7d9a093d41b19498fec7a4079d9e863d54d341e01762e101184836040516104eb929190610bd8565b60405180910390a2505050565b6000602052816000526040600020602052806000526040600020600091509150508060000154908060010154908060020154908060030154908060040154905085565b6000806000808573ffffffffffffffffffffffffffffffffffffffff1673ffffffffffffffffffffffffffffffffffffffff16815260200190815260200160002060008481526020019081526020016000209050806002015442106105b657806004015481600001546105ae9190610d8b565b9150506105f4565b60008160010154426105c89190610d8b565b905060008260030154826105dc9190610d31565b90508260040154816105ee9190610d8b565b93505050505b92915050565b81341461063c576040517f08c379a000000000000000000000000000000000000000000000000000000000815260040161063390610b1d565b60405180910390fd5b6000821161067f576040517f08c379a000000000000000000000000000000000000000000000000000000000815260040161067690610b7d565b60405180910390fd5b600081116106c2576040517f08c379a00000000000000000000000000000000000000000000000000000000081526004016106b990610b5d565b60405180910390fd5b6000429050600082826106d59190610caa565b9050600083856106e59190610d00565b90506000600160008873ffffffffffffffffffffffffffffffffffffffff1673ffffffffffffffffffffffffffffffffffffffff1681526020019081526020016000205490506040518060a0016040528087815260200185815260200184815260200183815260200160008152506000808973ffffffffffffffffffffffffffffffffffffffff1673ffffffffffffffffffffffffffffffffffffffff16815260200190815260200160002060008381526020019081526020016000206000820151816000015560208201518160010155604082015181600201556060820151816003015560808201518160040155905050600160008873ffffffffffffffffffffffffffffffffffffffff1673ffffffffffffffffffffffffffffffffffffffff168152602001908152602001600020600081548092919061082790610dfb565b91905055508673ffffffffffffffffffffffffffffffffffffffff167fc8f3af717e0ec059dbdd9394a9e0d9fae1e8aafb5fbfcd56c1ea5bd5b493c061828887876040516108789493929190610c01565b60405180910390a250505050505050565b60016020528060005260406000206000915090505481565b6000813590506108b081610ea2565b92915050565b6000813590506108c581610eb9565b92915050565b6000602082840312156108dd57600080fd5b60006108eb848285016108a1565b91505092915050565b6000806040838503121561090757600080fd5b6000610915858286016108a1565b9250506020610926858286016108b6565b9150509250929050565b60008060006060848603121561094557600080fd5b6000610953868287016108a1565b9350506020610964868287016108b6565b9250506040610975868287016108b6565b9150509250925092565b60006020828403121561099157600080fd5b600061099f848285016108b6565b91505092915050565b60006109b5602183610c99565b91507f4465706f736974206d757374206d61746368207468652076616c75652073656e60008301527f74000000000000000000000000000000000000000000000000000000000000006020830152604082019050919050565b6000610a1b601083610c99565b91507f4e6f206163746976652073747265616d000000000000000000000000000000006000830152602082019050919050565b6000610a5b601f83610c99565b91507f4475726174696f6e206d7573742062652067726561746572207468616e2030006000830152602082019050919050565b6000610a9b601e83610c99565b91507f4465706f736974206d7573742062652067726561746572207468616e203000006000830152602082019050919050565b6000610adb601683610c99565b91507f4e6f2062616c616e636520746f207769746864726177000000000000000000006000830152602082019050919050565b610b1781610df1565b82525050565b60006020820190508181036000830152610b36816109a8565b9050919050565b60006020820190508181036000830152610b5681610a0e565b9050919050565b60006020820190508181036000830152610b7681610a4e565b9050919050565b60006020820190508181036000830152610b9681610a8e565b9050919050565b60006020820190508181036000830152610bb681610ace565b9050919050565b6000602082019050610bd26000830184610b0e565b92915050565b6000604082019050610bed6000830185610b0e565b610bfa6020830184610b0e565b9392505050565b6000608082019050610c166000830187610b0e565b610c236020830186610b0e565b610c306040830185610b0e565b610c3d6060830184610b0e565b95945050505050565b600060a082019050610c5b6000830188610b0e565b610c686020830187610b0e565b610c756040830186610b0e565b610c826060830185610b0e565b610c8f6080830184610b0e565b9695505050505050565b600082825260208201905092915050565b6000610cb582610df1565b9150610cc083610df1565b9250827fffffffffffffffffffffffffffffffffffffffffffffffffffffffffffffffff03821115610cf557610cf4610e44565b5b828201905092915050565b6000610d0b82610df1565b9150610d1683610df1565b925082610d2657610d25610e73565b5b828204905092915050565b6000610d3c82610df1565b9150610d4783610df1565b9250817fffffffffffffffffffffffffffffffffffffffffffffffffffffffffffffffff0483118215151615610d8057610d7f610e44565b5b828202905092915050565b6000610d9682610df1565b9150610da183610df1565b925082821015610db457610db3610e44565b5b828203905092915050565b6000610dca82610dd1565b9050919050565b600073ffffffffffffffffffffffffffffffffffffffff82169050919050565b6000819050919050565b6000610e0682610df1565b91507fffffffffffffffffffffffffffffffffffffffffffffffffffffffffffffffff821415610e3957610e38610e44565b5b600182019050919050565b7f4e487b7100000000000000000000000000000000000000000000000000000000600052601160045260246000fd5b7f4e487b7100000000000000000000000000000000000000000000000000000000600052601260045260246000fd5b610eab81610dbf565b8114610eb657600080fd5b50565b610ec281610df1565b8114610ecd57600080fd5b5056fea2646970667358221220684e24c556b115af8a77923bbdb8bfaf6d734518d422709ed46e2f93281f161164736f6c63430008000033",
  "linkReferences": {},
  "deployedLinkReferences": {}
}